:100000000C9434000C943E000C943E000C943E0082
:100010000C943E000C943E000C943E000C943E0068
:100020000C943E000C943E000C943E000C943E0058
:100030000C943E000C943E000C943E000C943E0048
:100040000C943E000C943E000C943E000C943E0038
:100050000C943E000C943E000C943E000C943E0028
:100060000C943E000C943E0011241FBECFEFD8E04C
:10007000DEBFCDBF0E9440000C9489000C940000AC
:1000800084B18A6184B92B982C98299885B18F60A6
:1000900085B92FEF89E698E1215080409040E1F743
:1000A00000C000002B982FEF89E698E12150804096
:1000B0009040E1F700C000002C9A2FEF89E698E10C
:1000C000215080409040E1F700C000002C982FEFB5
:1000D00089E698E1215080409040E1F700C000009F
:1000E00085B1886185B92FEF89E698E1215080407C
:1000F0009040E1F700C0000085B1817085B92FEF15
:1001000089E698E1215080409040E1F700C000006E
:06011000BDCFF894FFCF03
:00000001FF
